{
  "abi": [
    {
      "type": "function",
      "name": "accounts",
      "inputs": [
        {
          "name": "",
          "type": "uint256",
          "internalType": "uint256"
        }
      ],
      "outputs": [
        {
          "name": "",
          "type": "address",
          "internalType": "address"
        }
      ],
      "stateMutability": "view"
    },
    {
      "type": "function",
      "name": "createAccount",
      "inputs": [
        {
          "name": "owner",
          "type": "address",
          "internalType": "address"
        },
        {
          "name": "userName",
          "type": "string",
          "internalType": "string"
        }
      ],
      "outputs": [
        {
          "name": "",
          "type": "address",
          "internalType": "address"
        }
      ],
      "stateMutability": "nonpayable"
    },
    {
      "type": "function",
      "name": "getAllTsds",
      "inputs": [],
      "outputs": [
        {
          "name": "",
          "type": "address[]",
          "internalType": "address[]"
        }
      ],
      "stateMutability": "view"
    },
    {
      "type": "function",
      "name": "hasAccount",
      "inputs": [
        {
          "name": "",
          "type": "address",
          "internalType": "address"
        }
      ],
      "outputs": [
        {
          "name": "",
          "type": "bool",
          "internalType": "bool"
        }
      ],
      "stateMutability": "view"
    },
    {
      "type": "function",
      "name": "ownerToAccount",
      "inputs": [
        {
          "name": "",
          "type": "address",
          "internalType": "address"
        }
      ],
      "outputs": [
        {
          "name": "",
          "type": "address",
          "internalType": "address"
        }
      ],
      "stateMutability": "view"
    },
    {
      "type": "event",
      "name": "AccountCreated",
      "inputs": [
        {
          "name": "account",
          "type": "address",
          "indexed": false,
          "internalType": "address"
        },
        {
          "name": "owner",
          "type": "address",
          "indexed": false,
          "internalType": "address"
        }
      ],
      "anonymous": false
    }
  ],
  "bytecode": {
    "object": "0x608060405234801561001057600080fd5b506117e8806100206000396000f3fe60806040523480156200001157600080fd5b50600436106200005e5760003560e01c80632659f39414620000635780632b7e2b681462000097578063c8e40fbf14620000b0578063e04cec2e14620000e7578063f2a40db81462000113575b600080fd5b6200007a620000743660046200056f565b6200012a565b6040516001600160a01b0390911681526020015b60405180910390f35b620000a162000295565b6040516200008e919062000622565b620000d6620000c136600462000671565b60026020526000908152604090205460ff1681565b60405190151581526020016200008e565b6200007a620000f836600462000671565b6001602052600090815260409020546001600160a01b031681565b6200007a6200012436600462000698565b620004d3565b6001600160a01b03821660009081526002602052604081205460ff1615620001915760405162461bcd60e51b81526020600482015260166024820152754163636f756e7420616c72656164792065786973747360501b604482015260640160405180910390fd5b60008383604051620001a390620004fe565b620001b0929190620006b2565b604051809103906000f080158015620001cd573d6000803e3d6000fd5b50604080516001600160a01b038084168252871660208201529192507fac631f3001b55ea1509cf3d7e74898f85392a61a76e8149181ae1259622dabc8910160405180910390a160008054600181810183557f290decd9548b62a8d60345a988386fc84ba6bc95484008f6362f93160ef3e56390910180546001600160a01b038086166001600160a01b031992831681179093558816845260208381526040808620805490931690931790915560029052909120805460ff1916909117905590505b92915050565b60606000805b60005481101562000350576000808281548110620002bd57620002bd62000713565b60009182526020822001546040805163f8862b5b60e01b815290516001600160a01b039092169350839263f8862b5b926004808401938290030181865afa1580156200030d573d6000803e3d6000fd5b505050506040513d6000823e601f3d908101601f1916820160405262000337919081019062000729565b51620003449084620007fe565b9250506001016200029b565b5060008167ffffffffffffffff8111156200036f576200036f62000525565b60405190808252806020026020018201604052801562000399578160200160208202803683370190505b5090506000805b600054811015620004ca576000808281548110620003c257620003c262000713565b9060005260206000200160009054906101000a90046001600160a01b031690506000816001600160a01b031663f8862b5b6040518163ffffffff1660e01b8152600401600060405180830381865afa15801562000423573d6000803e3d6000fd5b505050506040513d6000823e601f3d908101601f191682016040526200044d919081019062000729565b905060005b8151811015620004be5781818151811062000471576200047162000713565b60200260200101518686815181106200048e576200048e62000713565b6001600160a01b039092166020928302919091019091015284620004b28162000814565b95505060010162000452565b505050600101620003a0565b50909392505050565b60008181548110620004e457600080fd5b6000918252602090912001546001600160a01b0316905081565b610f82806200083183390190565b6001600160a01b03811681146200052257600080fd5b50565b634e487b7160e01b600052604160045260246000fd5b604051601f8201601f1916810167ffffffffffffffff8111828210171562000567576200056762000525565b604052919050565b600080604083850312156200058357600080fd5b823562000590816200050c565b915060208381013567ffffffffffffffff80821115620005af57600080fd5b818601915086601f830112620005c457600080fd5b813581811115620005d957620005d962000525565b620005ed601f8201601f191685016200053b565b915080825287848285010111156200060457600080fd5b80848401858401376000848284010152508093505050509250929050565b6020808252825182820181905260009190848201906040850190845b81811015620006655783516001600160a01b0316835292840192918401916001016200063e565b50909695505050505050565b6000602082840312156200068457600080fd5b813562000691816200050c565b9392505050565b600060208284031215620006ab57600080fd5b5035919050565b60018060a01b03831681526000602060406020840152835180604085015260005b81811015620006f157858101830151858201606001528201620006d3565b506000606082860101526060601f19601f830116850101925050509392505050565b634e487b7160e01b600052603260045260246000fd5b600060208083850312156200073d57600080fd5b825167ffffffffffffffff808211156200075657600080fd5b818501915085601f8301126200076b57600080fd5b81518181111562000780576200078062000525565b8060051b9150620007938483016200053b565b8181529183018401918481019088841115620007ae57600080fd5b938501935b83851015620007dc5784519250620007cb836200050c565b8282529385019390850190620007b3565b98975050505050505050565b634e487b7160e01b600052601160045260246000fd5b808201808211156200028f576200028f620007e8565b600060018201620008295762000829620007e8565b506001019056fe60806040523480156200001157600080fd5b5060405162000f8238038062000f8283398101604081905262000034916200007c565b600180546001600160a01b0319166001600160a01b03841617905560026200005d828262000203565b505050620002cf565b634e487b7160e01b600052604160045260246000fd5b600080604083850312156200009057600080fd5b82516001600160a01b0381168114620000a857600080fd5b602084810151919350906001600160401b0380821115620000c857600080fd5b818601915086601f830112620000dd57600080fd5b815181811115620000f257620000f262000066565b604051601f8201601f19908116603f011681019083821181831017156200011d576200011d62000066565b8160405282815289868487010111156200013657600080fd5b600093505b828410156200015a57848401860151818501870152928501926200013b565b60008684830101528096505050505050509250929050565b600181811c908216806200018757607f821691505b602082108103620001a857634e487b7160e01b600052602260045260246000fd5b50919050565b601f821115620001fe576000816000526020600020601f850160051c81016020861015620001d95750805b601f850160051c820191505b81811015620001fa57828155600101620001e5565b5050505b505050565b81516001600160401b038111156200021f576200021f62000066565b620002378162000230845462000172565b84620001ae565b602080601f8311600181146200026f5760008415620002565750858301515b600019600386901b1c1916600185901b178555620001fa565b600085815260208120601f198616915b82811015620002a0578886015182559484019460019091019084016200027f565b5085821015620002bf5787850151600019600388901b60f8161c191681555b5050505050600190811b01905550565b610ca380620002df6000396000f3fe60806040523480156200001157600080fd5b5060043610620000935760003560e01c806370019b35116200006257806370019b3514620001225780638da5cb5b146200013b578063932e1fcc146200014f578063f8862b5b146200015957600080fd5b80630757a4eb146200009857806319822f7c14620000b157806324a4a2b014620000de57806331012f10146200010e575b600080fd5b620000af620000a936600462000406565b62000172565b005b620000cb620000c236600462000498565b60009392505050565b6040519081526020015b60405180910390f35b620000f5620000ef366004620004ef565b62000228565b6040516001600160a01b039091168152602001620000d5565b600354620000f5906001600160a01b031681565b6200012c62000253565b604051620000d5919062000551565b600154620000f5906001600160a01b031681565b620000cb60005481565b62000163620002e9565b604051620000d591906200056d565b600283838360405162000185906200034d565b620001949493929190620005f8565b604051809103906000f080158015620001b1573d6000803e3d6000fd5b50600380546001600160a01b03929092166001600160a01b031992831681179091556004805460018101825560009182527f8a35acfbc15ff81a39ae7d344fd709f28e8600b4aa8c65c6b64bfe7fe36bd19b018054909316909117909155805490806200021e83620006f3565b9190505550505050565b600481815481106200023957600080fd5b6000918252602090912001546001600160a01b0316905081565b600280546200026290620005bc565b80601f01602080910402602001604051908101604052809291908181526020018280546200029090620005bc565b8015620002e15780601f10620002b557610100808354040283529160200191620002e1565b820191906000526020600020905b815481529060010190602001808311620002c357829003601f168201915b505050505081565b606060048054806020026020016040519081016040528092919081815260200182805480156200034357602002820191906000526020600020905b81546001600160a01b0316815260019091019060200180831162000324575b5050505050905090565b610552806200071c83390190565b634e487b7160e01b600052604160045260246000fd5b600082601f8301126200038357600080fd5b813567ffffffffffffffff80821115620003a157620003a16200035b565b604051601f8301601f19908116603f01168101908282118183101715620003cc57620003cc6200035b565b81604052838152866020858801011115620003e657600080fd5b836020870160208301376000602085830101528094505050505092915050565b6000806000606084860312156200041c57600080fd5b833567ffffffffffffffff808211156200043557600080fd5b620004438783880162000371565b945060208601359150808211156200045a57600080fd5b620004688783880162000371565b935060408601359150808211156200047f57600080fd5b506200048e8682870162000371565b9150509250925092565b600080600060608486031215620004ae57600080fd5b833567ffffffffffffffff811115620004c657600080fd5b84016101208187031215620004da57600080fd5b95602085013595506040909401359392505050565b6000602082840312156200050257600080fd5b5035919050565b6000815180845260005b81811015620005315760208185018101518683018201520162000513565b506000602082860101526020601f19601f83011685010191505092915050565b60208152600062000566602083018462000509565b9392505050565b6020808252825182820181905260009190848201906040850190845b81811015620005b05783516001600160a01b03168352928401929184019160010162000589565b50909695505050505050565b600181811c90821680620005d157607f821691505b602082108103620005f257634e487b7160e01b600052602260045260246000fd5b50919050565b6080815260008086548160018260011c915060018316806200061b57607f831692505b602080841082036200063b57634e487b7160e01b86526022600452602486fd5b6080880184905260a088018280156200065d57600181146200067457620006a1565b60ff198716825285151560051b82019750620006a1565b60008e81526020902060005b878110156200069b5781548482015290860190840162000680565b83019850505b505050505050508281036020840152620006bc818762000509565b90508281036040840152620006d2818662000509565b90508281036060840152620006e8818562000509565b979650505050505050565b6000600182016200071457634e487b7160e01b600052601160045260246000fd5b506001019056fe608060405234801561001057600080fd5b5060405161055238038061055283398101604081905261002f9161012a565b600061003b8582610261565b5060016100488482610261565b5060026100558382610261565b5060036100628282610261565b5050505050610320565b634e487b7160e01b600052604160045260246000fd5b600082601f83011261009357600080fd5b81516001600160401b03808211156100ad576100ad61006c565b604051601f8301601f19908116603f011681019082821181831017156100d5576100d561006c565b81604052838152602092508660208588010111156100f257600080fd5b600091505b8382101561011457858201830151818301840152908201906100f7565b6000602085830101528094505050505092915050565b6000806000806080858703121561014057600080fd5b84516001600160401b038082111561015757600080fd5b61016388838901610082565b9550602087015191508082111561017957600080fd5b61018588838901610082565b9450604087015191508082111561019b57600080fd5b6101a788838901610082565b935060608701519150808211156101bd57600080fd5b506101ca87828801610082565b91505092959194509250565b600181811c908216806101ea57607f821691505b60208210810361020a57634e487b7160e01b600052602260045260246000fd5b50919050565b601f82111561025c576000816000526020600020601f850160051c810160208610156102395750805b601f850160051c820191505b8181101561025857828155600101610245565b5050505b505050565b81516001600160401b0381111561027a5761027a61006c565b61028e8161028884546101d6565b84610210565b602080601f8311600181146102c357600084156102ab5750858301515b600019600386901b1c1916600185901b178555610258565b600085815260208120601f198616915b828110156102f2578886015182559484019460019091019084016102d3565b50858210156103105787850151600019600388901b60f8161c191681555b5050505050600190811b01905550565b6102238061032f6000396000f3fe608060405234801561001057600080fd5b50600436106100575760003560e01c806370019b351461005c578063755f047b1461007a57806394d788d7146100825780639a33e3001461009f578063f28ca1dd146100a7575b600080fd5b6100646100af565b6040516100719190610164565b60405180910390f35b61006461013d565b60045461008f9060ff1681565b6040519015158152602001610071565b61006461014a565b610064610157565b600080546100bc906101b3565b80601f01602080910402602001604051908101604052809291908181526020018280546100e8906101b3565b80156101355780601f1061010a57610100808354040283529160200191610135565b820191906000526020600020905b81548152906001019060200180831161011857829003601f168201915b505050505081565b600280546100bc906101b3565b600180546100bc906101b3565b600380546100bc906101b3565b60006020808352835180602085015260005b8181101561019257858101830151858201604001528201610176565b506000604082860101526040601f19601f8301168501019250505092915050565b600181811c908216806101c757607f821691505b6020821081036101e757634e487b7160e01b600052602260045260246000fd5b5091905056fea2646970667358221220ecd6e30ebbf596745711f18a705d2a24375d7294c58fc5359f4ba6f2a2aae3d864736f6c63430008180033a264697066735822122045d39c2e46297da81eaf04509a7971b0bf541ab1d11e546293e824e55405a3cc64736f6c63430008180033a2646970667358221220700808ada90bd2ffb6e753123558db5f4e95dc0468b9c59a2ed91d22a7ab271d64736f6c63430008180033",
    "linkReferences": {}
  },
  "methodIdentifiers": {
    "accounts(uint256)": "f2a40db8",
    "createAccount(address,string)": "2659f394",
    "getAllTsds()": "2b7e2b68",
    "hasAccount(address)": "c8e40fbf",
    "ownerToAccount(address)": "e04cec2e"
  },
  "id": 19
}