{
  "abi": [
    {
      "type": "constructor",
      "inputs": [
        {
          "name": "_owner",
          "type": "address",
          "internalType": "address"
        },
        {
          "name": "_userName",
          "type": "string",
          "internalType": "string"
        }
      ],
      "stateMutability": "nonpayable"
    },
    {
      "type": "function",
      "name": "createTSD",
      "inputs": [
        {
          "name": "_projectName",
          "type": "string",
          "internalType": "string"
        },
        {
          "name": "_projectDescription",
          "type": "string",
          "internalType": "string"
        },
        {
          "name": "_dataURI",
          "type": "string",
          "internalType": "string"
        }
      ],
      "outputs": [],
      "stateMutability": "nonpayable"
    },
    {
      "type": "function",
      "name": "getTsds",
      "inputs": [],
      "outputs": [
        {
          "name": "",
          "type": "address[]",
          "internalType": "address[]"
        }
      ],
      "stateMutability": "view"
    },
    {
      "type": "function",
      "name": "owner",
      "inputs": [],
      "outputs": [
        {
          "name": "",
          "type": "address",
          "internalType": "address"
        }
      ],
      "stateMutability": "view"
    },
    {
      "type": "function",
      "name": "tsd",
      "inputs": [],
      "outputs": [
        {
          "name": "",
          "type": "address",
          "internalType": "contract TSD"
        }
      ],
      "stateMutability": "view"
    },
    {
      "type": "function",
      "name": "tsdCounter",
      "inputs": [],
      "outputs": [
        {
          "name": "",
          "type": "uint256",
          "internalType": "uint256"
        }
      ],
      "stateMutability": "view"
    },
    {
      "type": "function",
      "name": "tsds",
      "inputs": [
        {
          "name": "",
          "type": "uint256",
          "internalType": "uint256"
        }
      ],
      "outputs": [
        {
          "name": "",
          "type": "address",
          "internalType": "address"
        }
      ],
      "stateMutability": "view"
    },
    {
      "type": "function",
      "name": "userName",
      "inputs": [],
      "outputs": [
        {
          "name": "",
          "type": "string",
          "internalType": "string"
        }
      ],
      "stateMutability": "view"
    },
    {
      "type": "function",
      "name": "validateUserOp",
      "inputs": [
        {
          "name": "",
          "type": "tuple",
          "internalType": "struct PackedUserOperation",
          "components": [
            {
              "name": "sender",
              "type": "address",
              "internalType": "address"
            },
            {
              "name": "nonce",
              "type": "uint256",
              "internalType": "uint256"
            },
            {
              "name": "initCode",
              "type": "bytes",
              "internalType": "bytes"
            },
            {
              "name": "callData",
              "type": "bytes",
              "internalType": "bytes"
            },
            {
              "name": "accountGasLimits",
              "type": "bytes32",
              "internalType": "bytes32"
            },
            {
              "name": "preVerificationGas",
              "type": "uint256",
              "internalType": "uint256"
            },
            {
              "name": "gasFees",
              "type": "bytes32",
              "internalType": "bytes32"
            },
            {
              "name": "paymasterAndData",
              "type": "bytes",
              "internalType": "bytes"
            },
            {
              "name": "signature",
              "type": "bytes",
              "internalType": "bytes"
            }
          ]
        },
        {
          "name": "",
          "type": "bytes32",
          "internalType": "bytes32"
        },
        {
          "name": "",
          "type": "uint256",
          "internalType": "uint256"
        }
      ],
      "outputs": [
        {
          "name": "validationData",
          "type": "uint256",
          "internalType": "uint256"
        }
      ],
      "stateMutability": "nonpayable"
    },
    {
      "type": "event",
      "name": "Log",
      "inputs": [
        {
          "name": "message",
          "type": "string",
          "indexed": false,
          "internalType": "string"
        }
      ],
      "anonymous": false
    }
  ],
  "bytecode": {
    "object": "0x60806040523480156200001157600080fd5b5060405162000f8238038062000f8283398101604081905262000034916200007c565b600180546001600160a01b0319166001600160a01b03841617905560026200005d828262000203565b505050620002cf565b634e487b7160e01b600052604160045260246000fd5b600080604083850312156200009057600080fd5b82516001600160a01b0381168114620000a857600080fd5b602084810151919350906001600160401b0380821115620000c857600080fd5b818601915086601f830112620000dd57600080fd5b815181811115620000f257620000f262000066565b604051601f8201601f19908116603f011681019083821181831017156200011d576200011d62000066565b8160405282815289868487010111156200013657600080fd5b600093505b828410156200015a57848401860151818501870152928501926200013b565b60008684830101528096505050505050509250929050565b600181811c908216806200018757607f821691505b602082108103620001a857634e487b7160e01b600052602260045260246000fd5b50919050565b601f821115620001fe576000816000526020600020601f850160051c81016020861015620001d95750805b601f850160051c820191505b81811015620001fa57828155600101620001e5565b5050505b505050565b81516001600160401b038111156200021f576200021f62000066565b620002378162000230845462000172565b84620001ae565b602080601f8311600181146200026f5760008415620002565750858301515b600019600386901b1c1916600185901b178555620001fa565b600085815260208120601f198616915b82811015620002a0578886015182559484019460019091019084016200027f565b5085821015620002bf5787850151600019600388901b60f8161c191681555b5050505050600190811b01905550565b610ca380620002df6000396000f3fe60806040523480156200001157600080fd5b5060043610620000935760003560e01c806370019b35116200006257806370019b3514620001225780638da5cb5b146200013b578063932e1fcc146200014f578063f8862b5b146200015957600080fd5b80630757a4eb146200009857806319822f7c14620000b157806324a4a2b014620000de57806331012f10146200010e575b600080fd5b620000af620000a936600462000406565b62000172565b005b620000cb620000c236600462000498565b60009392505050565b6040519081526020015b60405180910390f35b620000f5620000ef366004620004ef565b62000228565b6040516001600160a01b039091168152602001620000d5565b600354620000f5906001600160a01b031681565b6200012c62000253565b604051620000d5919062000551565b600154620000f5906001600160a01b031681565b620000cb60005481565b62000163620002e9565b604051620000d591906200056d565b600283838360405162000185906200034d565b620001949493929190620005f8565b604051809103906000f080158015620001b1573d6000803e3d6000fd5b50600380546001600160a01b03929092166001600160a01b031992831681179091556004805460018101825560009182527f8a35acfbc15ff81a39ae7d344fd709f28e8600b4aa8c65c6b64bfe7fe36bd19b018054909316909117909155805490806200021e83620006f3565b9190505550505050565b600481815481106200023957600080fd5b6000918252602090912001546001600160a01b0316905081565b600280546200026290620005bc565b80601f01602080910402602001604051908101604052809291908181526020018280546200029090620005bc565b8015620002e15780601f10620002b557610100808354040283529160200191620002e1565b820191906000526020600020905b815481529060010190602001808311620002c357829003601f168201915b505050505081565b606060048054806020026020016040519081016040528092919081815260200182805480156200034357602002820191906000526020600020905b81546001600160a01b0316815260019091019060200180831162000324575b5050505050905090565b610552806200071c83390190565b634e487b7160e01b600052604160045260246000fd5b600082601f8301126200038357600080fd5b813567ffffffffffffffff80821115620003a157620003a16200035b565b604051601f8301601f19908116603f01168101908282118183101715620003cc57620003cc6200035b565b81604052838152866020858801011115620003e657600080fd5b836020870160208301376000602085830101528094505050505092915050565b6000806000606084860312156200041c57600080fd5b833567ffffffffffffffff808211156200043557600080fd5b620004438783880162000371565b945060208601359150808211156200045a57600080fd5b620004688783880162000371565b935060408601359150808211156200047f57600080fd5b506200048e8682870162000371565b9150509250925092565b600080600060608486031215620004ae57600080fd5b833567ffffffffffffffff811115620004c657600080fd5b84016101208187031215620004da57600080fd5b95602085013595506040909401359392505050565b6000602082840312156200050257600080fd5b5035919050565b6000815180845260005b81811015620005315760208185018101518683018201520162000513565b506000602082860101526020601f19601f83011685010191505092915050565b60208152600062000566602083018462000509565b9392505050565b6020808252825182820181905260009190848201906040850190845b81811015620005b05783516001600160a01b03168352928401929184019160010162000589565b50909695505050505050565b600181811c90821680620005d157607f821691505b602082108103620005f257634e487b7160e01b600052602260045260246000fd5b50919050565b6080815260008086548160018260011c915060018316806200061b57607f831692505b602080841082036200063b57634e487b7160e01b86526022600452602486fd5b6080880184905260a088018280156200065d57600181146200067457620006a1565b60ff198716825285151560051b82019750620006a1565b60008e81526020902060005b878110156200069b5781548482015290860190840162000680565b83019850505b505050505050508281036020840152620006bc818762000509565b90508281036040840152620006d2818662000509565b90508281036060840152620006e8818562000509565b979650505050505050565b6000600182016200071457634e487b7160e01b600052601160045260246000fd5b506001019056fe608060405234801561001057600080fd5b5060405161055238038061055283398101604081905261002f9161012a565b600061003b8582610261565b5060016100488482610261565b5060026100558382610261565b5060036100628282610261565b5050505050610320565b634e487b7160e01b600052604160045260246000fd5b600082601f83011261009357600080fd5b81516001600160401b03808211156100ad576100ad61006c565b604051601f8301601f19908116603f011681019082821181831017156100d5576100d561006c565b81604052838152602092508660208588010111156100f257600080fd5b600091505b8382101561011457858201830151818301840152908201906100f7565b6000602085830101528094505050505092915050565b6000806000806080858703121561014057600080fd5b84516001600160401b038082111561015757600080fd5b61016388838901610082565b9550602087015191508082111561017957600080fd5b61018588838901610082565b9450604087015191508082111561019b57600080fd5b6101a788838901610082565b935060608701519150808211156101bd57600080fd5b506101ca87828801610082565b91505092959194509250565b600181811c908216806101ea57607f821691505b60208210810361020a57634e487b7160e01b600052602260045260246000fd5b50919050565b601f82111561025c576000816000526020600020601f850160051c810160208610156102395750805b601f850160051c820191505b8181101561025857828155600101610245565b5050505b505050565b81516001600160401b0381111561027a5761027a61006c565b61028e8161028884546101d6565b84610210565b602080601f8311600181146102c357600084156102ab5750858301515b600019600386901b1c1916600185901b178555610258565b600085815260208120601f198616915b828110156102f2578886015182559484019460019091019084016102d3565b50858210156103105787850151600019600388901b60f8161c191681555b5050505050600190811b01905550565b6102238061032f6000396000f3fe608060405234801561001057600080fd5b50600436106100575760003560e01c806370019b351461005c578063755f047b1461007a57806394d788d7146100825780639a33e3001461009f578063f28ca1dd146100a7575b600080fd5b6100646100af565b6040516100719190610164565b60405180910390f35b61006461013d565b60045461008f9060ff1681565b6040519015158152602001610071565b61006461014a565b610064610157565b600080546100bc906101b3565b80601f01602080910402602001604051908101604052809291908181526020018280546100e8906101b3565b80156101355780601f1061010a57610100808354040283529160200191610135565b820191906000526020600020905b81548152906001019060200180831161011857829003601f168201915b505050505081565b600280546100bc906101b3565b600180546100bc906101b3565b600380546100bc906101b3565b60006020808352835180602085015260005b8181101561019257858101830151858201604001528201610176565b506000604082860101526040601f19601f8301168501019250505092915050565b600181811c908216806101c757607f821691505b6020821081036101e757634e487b7160e01b600052602260045260246000fd5b5091905056fea2646970667358221220ecd6e30ebbf596745711f18a705d2a24375d7294c58fc5359f4ba6f2a2aae3d864736f6c63430008180033a264697066735822122045d39c2e46297da81eaf04509a7971b0bf541ab1d11e546293e824e55405a3cc64736f6c63430008180033",
    "linkReferences": {}
  },
  "methodIdentifiers": {
    "createTSD(string,string,string)": "0757a4eb",
    "getTsds()": "f8862b5b",
    "owner()": "8da5cb5b",
    "tsd()": "31012f10",
    "tsdCounter()": "932e1fcc",
    "tsds(uint256)": "24a4a2b0",
    "userName()": "70019b35",
    "validateUserOp((address,uint256,bytes,bytes,bytes32,uint256,bytes32,bytes,bytes),bytes32,uint256)": "19822f7c"
  },
  "id": 18
}