{
  "abi": [
    {
      "type": "constructor",
      "inputs": [
        {
          "name": "_name",
          "type": "string",
          "internalType": "string"
        },
        {
          "name": "_projectName",
          "type": "string",
          "internalType": "string"
        },
        {
          "name": "_projectDescription",
          "type": "string",
          "internalType": "string"
        },
        {
          "name": "_dataURI",
          "type": "string",
          "internalType": "string"
        }
      ],
      "stateMutability": "nonpayable"
    },
    {
      "type": "function",
      "name": "dataURI",
      "inputs": [],
      "outputs": [
        {
          "name": "",
          "type": "string",
          "internalType": "string"
        }
      ],
      "stateMutability": "view"
    },
    {
      "type": "function",
      "name": "isAttested",
      "inputs": [],
      "outputs": [
        {
          "name": "",
          "type": "bool",
          "internalType": "bool"
        }
      ],
      "stateMutability": "view"
    },
    {
      "type": "function",
      "name": "projectDescription",
      "inputs": [],
      "outputs": [
        {
          "name": "",
          "type": "string",
          "internalType": "string"
        }
      ],
      "stateMutability": "view"
    },
    {
      "type": "function",
      "name": "projectName",
      "inputs": [],
      "outputs": [
        {
          "name": "",
          "type": "string",
          "internalType": "string"
        }
      ],
      "stateMutability": "view"
    },
    {
      "type": "function",
      "name": "userName",
      "inputs": [],
      "outputs": [
        {
          "name": "",
          "type": "string",
          "internalType": "string"
        }
      ],
      "stateMutability": "view"
    }
  ],
  "bytecode": {
    "object": "0x608060405234801561001057600080fd5b5060405161055238038061055283398101604081905261002f9161012a565b600061003b8582610261565b5060016100488482610261565b5060026100558382610261565b5060036100628282610261565b5050505050610320565b634e487b7160e01b600052604160045260246000fd5b600082601f83011261009357600080fd5b81516001600160401b03808211156100ad576100ad61006c565b604051601f8301601f19908116603f011681019082821181831017156100d5576100d561006c565b81604052838152602092508660208588010111156100f257600080fd5b600091505b8382101561011457858201830151818301840152908201906100f7565b6000602085830101528094505050505092915050565b6000806000806080858703121561014057600080fd5b84516001600160401b038082111561015757600080fd5b61016388838901610082565b9550602087015191508082111561017957600080fd5b61018588838901610082565b9450604087015191508082111561019b57600080fd5b6101a788838901610082565b935060608701519150808211156101bd57600080fd5b506101ca87828801610082565b91505092959194509250565b600181811c908216806101ea57607f821691505b60208210810361020a57634e487b7160e01b600052602260045260246000fd5b50919050565b601f82111561025c576000816000526020600020601f850160051c810160208610156102395750805b601f850160051c820191505b8181101561025857828155600101610245565b5050505b505050565b81516001600160401b0381111561027a5761027a61006c565b61028e8161028884546101d6565b84610210565b602080601f8311600181146102c357600084156102ab5750858301515b600019600386901b1c1916600185901b178555610258565b600085815260208120601f198616915b828110156102f2578886015182559484019460019091019084016102d3565b50858210156103105787850151600019600388901b60f8161c191681555b5050505050600190811b01905550565b6102238061032f6000396000f3fe608060405234801561001057600080fd5b50600436106100575760003560e01c806370019b351461005c578063755f047b1461007a57806394d788d7146100825780639a33e3001461009f578063f28ca1dd146100a7575b600080fd5b6100646100af565b6040516100719190610164565b60405180910390f35b61006461013d565b60045461008f9060ff1681565b6040519015158152602001610071565b61006461014a565b610064610157565b600080546100bc906101b3565b80601f01602080910402602001604051908101604052809291908181526020018280546100e8906101b3565b80156101355780601f1061010a57610100808354040283529160200191610135565b820191906000526020600020905b81548152906001019060200180831161011857829003601f168201915b505050505081565b600280546100bc906101b3565b600180546100bc906101b3565b600380546100bc906101b3565b60006020808352835180602085015260005b8181101561019257858101830151858201604001528201610176565b506000604082860101526040601f19601f8301168501019250505092915050565b600181811c908216806101c757607f821691505b6020821081036101e757634e487b7160e01b600052602260045260246000fd5b5091905056fea2646970667358221220ecd6e30ebbf596745711f18a705d2a24375d7294c58fc5359f4ba6f2a2aae3d864736f6c63430008180033",
    "linkReferences": {}
  },
  "methodIdentifiers": {
    "dataURI()": "f28ca1dd",
    "isAttested()": "94d788d7",
    "projectDescription()": "755f047b",
    "projectName()": "9a33e300",
    "userName()": "70019b35"
  },
  "id": 20
}